{
  "contractName": "DacredRouter",
  "abi": [
    {
      "inputs": [],
      "stateMutability": "nonpayable",
      "type": "constructor"
    },
    {
      "anonymous": false,
      "inputs": [
        {
          "indexed": true,
          "internalType": "bytes32",
          "name": "id",
          "type": "bytes32"
        }
      ],
      "name": "ChainlinkCancelled",
      "type": "event"
    },
    {
      "anonymous": false,
      "inputs": [
        {
          "indexed": true,
          "internalType": "bytes32",
          "name": "id",
          "type": "bytes32"
        }
      ],
      "name": "ChainlinkFulfilled",
      "type": "event"
    },
    {
      "anonymous": false,
      "inputs": [
        {
          "indexed": true,
          "internalType": "bytes32",
          "name": "id",
          "type": "bytes32"
        }
      ],
      "name": "ChainlinkRequested",
      "type": "event"
    },
    {
      "anonymous": false,
      "inputs": [
        {
          "indexed": false,
          "internalType": "address",
          "name": "contractAddress",
          "type": "address"
        },
        {
          "indexed": false,
          "internalType": "uint256",
          "name": "createdAt",
          "type": "uint256"
        }
      ],
      "name": "NewContractCreated",
      "type": "event"
    },
    {
      "inputs": [],
      "name": "_uri_",
      "outputs": [
        {
          "internalType": "string",
          "name": "",
          "type": "string"
        }
      ],
      "stateMutability": "view",
      "type": "function"
    },
    {
      "inputs": [
        {
          "internalType": "address",
          "name": "",
          "type": "address"
        }
      ],
      "name": "credentials",
      "outputs": [
        {
          "internalType": "contract DacredFactory",
          "name": "contractAddress",
          "type": "address"
        },
        {
          "internalType": "address",
          "name": "deployer",
          "type": "address"
        },
        {
          "internalType": "string",
          "name": "certificateId",
          "type": "string"
        },
        {
          "internalType": "uint256",
          "name": "createdAt",
          "type": "uint256"
        }
      ],
      "stateMutability": "view",
      "type": "function"
    },
    {
      "inputs": [],
      "name": "pass",
      "outputs": [
        {
          "internalType": "bool",
          "name": "",
          "type": "bool"
        }
      ],
      "stateMutability": "view",
      "type": "function"
    },
    {
      "inputs": [
        {
          "internalType": "string",
          "name": "name",
          "type": "string"
        },
        {
          "internalType": "string",
          "name": "certId",
          "type": "string"
        }
      ],
      "name": "createContractForClient",
      "outputs": [
        {
          "internalType": "address",
          "name": "",
          "type": "address"
        }
      ],
      "stateMutability": "nonpayable",
      "type": "function"
    },
    {
      "inputs": [
        {
          "internalType": "string",
          "name": "_requestURI",
          "type": "string"
        }
      ],
      "name": "setRequestURI",
      "outputs": [],
      "stateMutability": "nonpayable",
      "type": "function"
    },
    {
      "inputs": [
        {
          "internalType": "string",
          "name": "_claimContractAddress",
          "type": "string"
        }
      ],
      "name": "validateRecipient",
      "outputs": [
        {
          "internalType": "bytes32",
          "name": "requestId",
          "type": "bytes32"
        }
      ],
      "stateMutability": "nonpayable",
      "type": "function"
    },
    {
      "inputs": [
        {
          "internalType": "bytes32",
          "name": "_requestId",
          "type": "bytes32"
        },
        {
          "internalType": "bool",
          "name": "_pass",
          "type": "bool"
        },
        {
          "internalType": "address",
          "name": "contractAddress",
          "type": "address"
        },
        {
          "internalType": "string",
          "name": "id",
          "type": "string"
        }
      ],
      "name": "fulfill",
      "outputs": [],
      "stateMutability": "nonpayable",
      "type": "function"
    }
  ],
  "bytecode": "0x6080604052600160045560405180606001604052806027815260200162005a4660279139600a90805190602001906200003a929190620001d6565b503480156200004857600080fd5b5062000059620000ea60201b60201c565b73c57b33452b4f7bb189bb5afae9cc4aba1f7a4fd8600660016101000a81548173ffffffffffffffffffffffffffffffffffffffff021916908373ffffffffffffffffffffffffffffffffffffffff1602179055507f626337343636313165626565343061333938396262653439653132613032623960078190555067016345785d8a000060088190555062000387565b6200019073c89bd4e1632d3a43cb03aaad5262cbe4038bc57173ffffffffffffffffffffffffffffffffffffffff166338cc48316040518163ffffffff1660e01b815260040160206040518083038186803b1580156200014957600080fd5b505afa1580156200015e573d6000803e3d6000fd5b505050506040513d601f19601f820116820180604052508101906200018491906200029d565b6200019260201b60201c565b565b80600260006101000a81548173ffffffffffffffffffffffffffffffffffffffff021916908373ffffffffffffffffffffffffffffffffffffffff16021790555050565b828054620001e49062000303565b90600052602060002090601f01602090048101928262000208576000855562000254565b82601f106200022357805160ff191683800117855562000254565b8280016001018555821562000254579182015b828111156200025357825182559160200191906001019062000236565b5b50905062000263919062000267565b5090565b5b808211156200028257600081600090555060010162000268565b5090565b60008151905062000297816200036d565b92915050565b600060208284031215620002b657620002b562000368565b5b6000620002c68482850162000286565b91505092915050565b6000620002dc82620002e3565b9050919050565b600073ffffffffffffffffffffffffffffffffffffffff82169050919050565b600060028204905060018216806200031c57607f821691505b6020821081141562000333576200033262000339565b5b50919050565b7f4e487b7100000000000000000000000000000000000000000000000000000000600052602260045260246000fd5b600080fd5b6200037881620002cf565b81146200038457600080fd5b50565b6156af80620003976000396000f3fe60806040523480156200001157600080fd5b5060043610620000885760003560e01c80636016dd4a11620000635780636016dd4a1462000105578063a1f92789146200013e578063a7a1ed721462000174578063c2d2957c14620001965762000088565b80630e11e62f146200008d5780631766240314620000ad57806344385cb414620000e3575b600080fd5b620000ab6004803603810190620000a59190620015b7565b620001b6565b005b620000cb6004803603810190620000c5919062001608565b620001d2565b604051620000da91906200185b565b60405180910390f35b620000ed620003a9565b604051620000fc919062001a40565b60405180910390f35b6200012360048036038101906200011d9190620014c2565b6200043f565b604051620001359493929190620019ec565b60405180910390f35b6200015c6004803603810190620001569190620015b7565b6200053f565b6040516200016b9190620019cf565b60405180910390f35b6200017e62000840565b6040516200018d9190620019b2565b60405180910390f35b620001b46004803603810190620001ae919062001526565b62000853565b005b80600a9080519060200190620001ce9291906200128a565b5050565b600080339050600042905060008585604051620001ef906200131b565b620001fc92919062001a64565b604051809103906000f08015801562000219573d6000803e3d6000fd5b50905060405180608001604052808273ffffffffffffffffffffffffffffffffffffffff1681526020018473ffffffffffffffffffffffffffffffffffffffff16815260200186815260200183815250600960008373ffffffffffffffffffffffffffffffffffffffff1673ffffffffffffffffffffffffffffffffffffffff16815260200190815260200160002060008201518160000160006101000a81548173ffffffffffffffffffffffffffffffffffffffff021916908373ffffffffffffffffffffffffffffffffffffffff16021790555060208201518160010160006101000a81548173ffffffffffffffffffffffffffffffffffffffff021916908373ffffffffffffffffffffffffffffffffffffffff1602179055506040820151816002019080519060200190620003549291906200128a565b50606082015181600301559050507f1118269319064b841205f4635dfcac2dda808dedaadedbbdd30d6b0077f3d1ae818360405162000395929190620018ac565b60405180910390a180935050505092915050565b600a8054620003b89062001f20565b80601f0160208091040260200160405190810160405280929190818152602001828054620003e69062001f20565b8015620004375780601f106200040b5761010080835404028352916020019162000437565b820191906000526020600020905b8154815290600101906020018083116200041957829003601f168201915b505050505081565b60096020528060005260406000206000915090508060000160009054906101000a900473ffffffffffffffffffffffffffffffffffffffff16908060010160009054906101000a900473ffffffffffffffffffffffffffffffffffffffff1690806002018054620004b09062001f20565b80601f0160208091040260200160405190810160405280929190818152602001828054620004de9062001f20565b80156200052f5780601f1062000503576101008083540402835291602001916200052f565b820191906000526020600020905b8154815290600101906020018083116200051157829003601f168201915b5050505050908060030154905084565b600080620005586007543063c2d2957c60e01b62000a18565b9050620006386040518060400160405280600481526020017f706f737400000000000000000000000000000000000000000000000000000000815250600a8054620005a39062001f20565b80601f0160208091040260200160405190810160405280929190818152602001828054620005d19062001f20565b8015620006225780601f10620005f65761010080835404028352916020019162000622565b820191906000526020600020905b8154815290600101906020018083116200060457829003601f168201915b50505050508362000a4f9092919063ffffffff16565b620006846040518060400160405280600181526020017f6500000000000000000000000000000000000000000000000000000000000000815250848362000a4f9092919063ffffffff16565b620007056040518060400160405280600481526020017f70617468000000000000000000000000000000000000000000000000000000008152506040518060400160405280600481526020017f70617373000000000000000000000000000000000000000000000000000000008152508362000a4f9092919063ffffffff16565b620007866040518060400160405280600481526020017f70617468000000000000000000000000000000000000000000000000000000008152506040518060400160405280600f81526020017f636f6e74726163744164647265737300000000000000000000000000000000008152508362000a4f9092919063ffffffff16565b620008076040518060400160405280600481526020017f70617468000000000000000000000000000000000000000000000000000000008152506040518060400160405280600281526020017f69640000000000000000000000000000000000000000000000000000000000008152508362000a4f9092919063ffffffff16565b62000838600660019054906101000a900473ffffffffffffffffffffffffffffffffffffffff168260085462000a86565b915050919050565b600660009054906101000a900460ff1681565b836005600082815260200190815260200160002060009054906101000a900473ffffffffffffffffffffffffffffffffffffffff1673ffffffffffffffffffffffffffffffffffffffff163373ffffffffffffffffffffffffffffffffffffffff1614620008f8576040517f08c379a0000000000000000000000000000000000000000000000000000000008152600401620008ef9062001ac1565b60405180910390fd5b6005600082815260200190815260200160002060006101000a81549073ffffffffffffffffffffffffffffffffffffffff0219169055807f7cc135e0cebb02c3480ae5d74d377283180a2601f8f644edf7987b009316c63a60405160405180910390a283600660006101000a81548160ff021916908315150217905550831562000a11578273ffffffffffffffffffffffffffffffffffffffff16637c3a580133846040518363ffffffff1660e01b8152600401620009b992919062001878565b602060405180830381600087803b158015620009d457600080fd5b505af1158015620009e9573d6000803e3d6000fd5b505050506040513d601f19601f8201168201806040525081019062000a0f91906200168d565b505b5050505050565b62000a2262001329565b62000a2c62001329565b62000a458585858462000aa8909392919063ffffffff16565b9150509392505050565b62000a6882846080015162000b5c90919063ffffffff16565b62000a8181846080015162000b5c90919063ffffffff16565b505050565b600062000a9f8484846001634042994660e01b62000b85565b90509392505050565b62000ab262001329565b62000ac4856080015161010062000dfc565b508385600001818152505082856020019073ffffffffffffffffffffffffffffffffffffffff16908173ffffffffffffffffffffffffffffffffffffffff16815250508185604001907bffffffffffffffffffffffffffffffffffffffffffffffffffffffff191690817bffffffffffffffffffffffffffffffffffffffffffffffffffffffff191681525050849050949350505050565b62000b6b826003835162000e71565b62000b80818362000fd190919063ffffffff16565b505050565b60003060045460405160200162000b9e9291906200182b565b604051602081830303815290604052805190602001209050600454856060018181525050856005600083815260200190815260200160002060006101000a81548173ffffffffffffffffffffffffffffffffffffffff021916908373ffffffffffffffffffffffffffffffffffffffff160217905550807fb5e6e01e79f91267dc17b4e6314d5d4d03593d2ceee0fbb452b750bd70ea5af960405160405180910390a2600082600080886000015189602001518a604001518b606001518a8d608001516000015160405160240162000c7e989796959493929190620018d9565b604051602081830303815290604052907bffffffffffffffffffffffffffffffffffffffffffffffffffffffff19166020820180517bffffffffffffffffffffffffffffffffffffffffffffffffffffffff83818316178352505050509050600260009054906101000a900473ffffffffffffffffffffffffffffffffffffffff1673ffffffffffffffffffffffffffffffffffffffff16634000aea08887846040518463ffffffff1660e01b815260040162000d3e939291906200196e565b602060405180830381600087803b15801562000d5957600080fd5b505af115801562000d6e573d6000803e3d6000fd5b505050506040513d601f19601f8201168201806040525081019062000d949190620014f4565b62000dd6576040517f08c379a000000000000000000000000000000000000000000000000000000000815260040162000dcd9062001a9f565b60405180910390fd5b60016004600082825462000deb919062001b7a565b925050819055505095945050505050565b62000e0662001398565b600060208362000e17919062001fbe565b1462000e4a5760208262000e2c919062001fbe565b602062000e3a919062001dd0565b8262000e47919062001b7a565b91505b81836020018181525050604051808452600081528281016020016040525082905092915050565b6017811162000ea25762000e9b8160058460ff16901b60ff16178462000ff790919063ffffffff16565b5062000fcc565b60ff811162000eea5762000eca601860058460ff16901b178462000ff790919063ffffffff16565b5062000ee3816001856200101b9092919063ffffffff16565b5062000fcb565b61ffff811162000f335762000f13601960058460ff16901b178462000ff790919063ffffffff16565b5062000f2c816002856200101b9092919063ffffffff16565b5062000fca565b63ffffffff811162000f7e5762000f5e601a60058460ff16901b178462000ff790919063ffffffff16565b5062000f77816004856200101b9092919063ffffffff16565b5062000fc9565b67ffffffffffffffff811162000fc85762000fad601b60058460ff16901b178462000ff790919063ffffffff16565b5062000fc6816008856200101b9092919063ffffffff16565b505b5b5b5b5b505050565b62000fdb62001398565b62000fef8384600001515184855162001041565b905092915050565b6200100162001398565b62001013838460000151518462001147565b905092915050565b6200102562001398565b62001038848560000151518585620011a6565b90509392505050565b6200104b62001398565b82518211156200105a57600080fd5b846020015182856200106d919062001b7a565b1115620010ab57620010aa856002620010988860200151888762001092919062001b7a565b62001244565b620010a4919062001d6f565b62001262565b5b600080865180518760208301019350808887011115620010cb5787860182525b60208701925050505b602084106200111a5780518252602082620010f0919062001b7a565b915060208162001101919062001b7a565b905060208462001112919062001dd0565b9350620010d4565b60006001856020036101000a03905080198251168184511681811785525050508692505050949350505050565b6200115162001398565b836020015183106200117c576200117b846002866020015162001175919062001d6f565b62001262565b5b835180516020858301018481538186141562001199576001820183525b5050508390509392505050565b620011b062001398565b84602001518483620011c3919062001b7a565b1115620011f257620011f18560028685620011df919062001b7a565b620011eb919062001d6f565b62001262565b5b600060018361010062001206919062001c32565b62001212919062001dd0565b90508551838682010185831982511617815281518588011115620012365784870182525b505085915050949350505050565b60008183111562001258578290506200125c565b8190505b92915050565b60008260000151905062001277838362000dfc565b5062001284838262000fd1565b50505050565b828054620012989062001f20565b90600052602060002090601f016020900481019282620012bc576000855562001308565b82601f10620012d757805160ff191683800117855562001308565b8280016001018555821562001308579182015b8281111562001307578251825591602001919060010190620012ea565b5b509050620013179190620013b2565b5090565b61348280620021f883390190565b6040518060a0016040528060008019168152602001600073ffffffffffffffffffffffffffffffffffffffff16815260200160007bffffffffffffffffffffffffffffffffffffffffffffffffffffffff19168152602001600081526020016200139262001398565b81525090565b604051806040016040528060608152602001600081525090565b5b80821115620013cd576000816000905550600101620013b3565b5090565b6000620013e8620013e28462001b0c565b62001ae3565b905082815260208101848484011115620014075762001406620020b7565b5b6200141484828562001edb565b509392505050565b6000813590506200142d816200218f565b92915050565b6000813590506200144481620021a9565b92915050565b6000815190506200145b81620021a9565b92915050565b6000813590506200147281620021c3565b92915050565b600082601f83011262001490576200148f620020b2565b5b8135620014a2848260208601620013d1565b91505092915050565b600081519050620014bc81620021dd565b92915050565b600060208284031215620014db57620014da620020c1565b5b6000620014eb848285016200141c565b91505092915050565b6000602082840312156200150d576200150c620020c1565b5b60006200151d848285016200144a565b91505092915050565b60008060008060808587031215620015435762001542620020c1565b5b6000620015538782880162001461565b9450506020620015668782880162001433565b935050604062001579878288016200141c565b925050606085013567ffffffffffffffff8111156200159d576200159c620020bc565b5b620015ab8782880162001478565b91505092959194509250565b600060208284031215620015d057620015cf620020c1565b5b600082013567ffffffffffffffff811115620015f157620015f0620020bc565b5b620015ff8482850162001478565b91505092915050565b60008060408385031215620016225762001621620020c1565b5b600083013567ffffffffffffffff811115620016435762001642620020bc565b5b620016518582860162001478565b925050602083013567ffffffffffffffff811115620016755762001674620020bc565b5b620016838582860162001478565b9150509250929050565b600060208284031215620016a657620016a5620020c1565b5b6000620016b684828501620014ab565b91505092915050565b620016ca8162001e0b565b82525050565b620016db8162001e1f565b82525050565b620016ec8162001e2b565b82525050565b620016fd8162001e35565b82525050565b6000620017108262001b42565b6200171c818562001b58565b93506200172e81856020860162001eea565b6200173981620020c6565b840191505092915050565b62001759620017538262001e8b565b62001f8c565b82525050565b6200176a8162001e9f565b82525050565b60006200177d8262001b4d565b62001789818562001b69565b93506200179b81856020860162001eea565b620017a681620020c6565b840191505092915050565b6000620017c060238362001b69565b9150620017cd82620020f1565b604082019050919050565b6000620017e760288362001b69565b9150620017f48262002140565b604082019050919050565b6200180a8162001e81565b82525050565b620018256200181f8262001e81565b62001fb4565b82525050565b600062001839828562001744565b6014820191506200184b828462001810565b6020820191508190509392505050565b6000602082019050620018726000830184620016bf565b92915050565b60006040820190506200188f6000830185620016bf565b8181036020830152620018a3818462001770565b90509392505050565b6000604082019050620018c36000830185620016bf565b620018d26020830184620017ff565b9392505050565b600061010082019050620018f1600083018b620016bf565b62001900602083018a620017ff565b6200190f6040830189620016e1565b6200191e6060830188620016bf565b6200192d6080830187620016f2565b6200193c60a0830186620017ff565b6200194b60c0830185620017ff565b81810360e08301526200195f818462001703565b90509998505050505050505050565b6000606082019050620019856000830186620016bf565b620019946020830185620017ff565b8181036040830152620019a8818462001703565b9050949350505050565b6000602082019050620019c96000830184620016d0565b92915050565b6000602082019050620019e66000830184620016e1565b92915050565b600060808201905062001a0360008301876200175f565b62001a126020830186620016bf565b818103604083015262001a26818562001770565b905062001a376060830184620017ff565b95945050505050565b6000602082019050818103600083015262001a5c818462001770565b905092915050565b6000604082019050818103600083015262001a80818562001770565b9050818103602083015262001a96818462001770565b90509392505050565b6000602082019050818103600083015262001aba81620017b1565b9050919050565b6000602082019050818103600083015262001adc81620017d8565b9050919050565b600062001aef62001b02565b905062001afd828262001f56565b919050565b6000604051905090565b600067ffffffffffffffff82111562001b2a5762001b2962002083565b5b62001b3582620020c6565b9050602081019050919050565b600081519050919050565b600081519050919050565b600082825260208201905092915050565b600082825260208201905092915050565b600062001b878262001e81565b915062001b948362001e81565b9250827fffffffffffffffffffffffffffffffffffffffffffffffffffffffffffffffff0382111562001bcc5762001bcb62001ff6565b5b828201905092915050565b6000808291508390505b600185111562001c295780860481111562001c015762001c0062001ff6565b5b600185161562001c115780820291505b808102905062001c2185620020e4565b945062001be1565b94509492505050565b600062001c3f8262001e81565b915062001c4c8362001e81565b925062001c7b7fffffffffffffffffffffffffffffffffffffffffffffffffffffffffffffffff848462001c83565b905092915050565b60008262001c95576001905062001d68565b8162001ca5576000905062001d68565b816001811462001cbe576002811462001cc95762001cff565b600191505062001d68565b60ff84111562001cde5762001cdd62001ff6565b5b8360020a91508482111562001cf85762001cf762001ff6565b5b5062001d68565b5060208310610133831016604e8410600b841016171562001d395782820a90508381111562001d335762001d3262001ff6565b5b62001d68565b62001d48848484600162001bd7565b9250905081840481111562001d625762001d6162001ff6565b5b81810290505b9392505050565b600062001d7c8262001e81565b915062001d898362001e81565b9250817fffffffffffffffffffffffffffffffffffffffffffffffffffffffffffffffff048311821515161562001dc55762001dc462001ff6565b5b828202905092915050565b600062001ddd8262001e81565b915062001dea8362001e81565b92508282101562001e005762001dff62001ff6565b5b828203905092915050565b600062001e188262001e61565b9050919050565b60008115159050919050565b6000819050919050565b60007fffffffff0000000000000000000000000000000000000000000000000000000082169050919050565b600073ffffffffffffffffffffffffffffffffffffffff82169050919050565b6000819050919050565b600062001e988262001eb3565b9050919050565b600062001eac8262001eb3565b9050919050565b600062001ec08262001ec7565b9050919050565b600062001ed48262001e61565b9050919050565b82818337600083830152505050565b60005b8381101562001f0a57808201518184015260208101905062001eed565b8381111562001f1a576000848401525b50505050565b6000600282049050600182168062001f3957607f821691505b6020821081141562001f505762001f4f62002054565b5b50919050565b62001f6182620020c6565b810181811067ffffffffffffffff8211171562001f835762001f8262002083565b5b80604052505050565b600062001f998262001fa0565b9050919050565b600062001fad82620020d7565b9050919050565b6000819050919050565b600062001fcb8262001e81565b915062001fd88362001e81565b92508262001feb5762001fea62002025565b5b828206905092915050565b7f4e487b7100000000000000000000000000000000000000000000000000000000600052601160045260246000fd5b7f4e487b7100000000000000000000000000000000000000000000000000000000600052601260045260246000fd5b7f4e487b7100000000000000000000000000000000000000000000000000000000600052602260045260246000fd5b7f4e487b7100000000000000000000000000000000000000000000000000000000600052604160045260246000fd5b600080fd5b600080fd5b600080fd5b600080fd5b6000601f19601f8301169050919050565b60008160601b9050919050565b60008160011c9050919050565b7f756e61626c6520746f207472616e73666572416e6443616c6c20746f206f726160008201527f636c650000000000000000000000000000000000000000000000000000000000602082015250565b7f536f75726365206d75737420626520746865206f7261636c65206f662074686560008201527f2072657175657374000000000000000000000000000000000000000000000000602082015250565b6200219a8162001e0b565b8114620021a657600080fd5b50565b620021b48162001e1f565b8114620021c057600080fd5b50565b620021ce8162001e2b565b8114620021da57600080fd5b50565b620021e88162001e81565b8114620021f457600080fd5b5056fe60806040523480156200001157600080fd5b506040516200348238038062003482833981810160405281019062000037919062000291565b818181600090805190602001906200005192919062000163565b5080600190805190602001906200006a92919062000163565b5050506200008d620000816200009560201b60201c565b6200009d60201b60201c565b50506200049a565b600033905090565b6000600760009054906101000a900473ffffffffffffffffffffffffffffffffffffffff16905081600760006101000a81548173ffffffffffffffffffffffffffffffffffffffff021916908373ffffffffffffffffffffffffffffffffffffffff1602179055508173ffffffffffffffffffffffffffffffffffffffff168173ffffffffffffffffffffffffffffffffffffffff167f8be0079c531659141344cd1fd0a4f28419497f9722a3daafe3b4186f6b6457e060405160405180910390a35050565b8280546200017190620003ab565b90600052602060002090601f016020900481019282620001955760008555620001e1565b82601f10620001b057805160ff1916838001178555620001e1565b82800160010185558215620001e1579182015b82811115620001e0578251825591602001919060010190620001c3565b5b509050620001f09190620001f4565b5090565b5b808211156200020f576000816000905550600101620001f5565b5090565b60006200022a62000224846200033f565b62000316565b9050828152602081018484840111156200024957620002486200047a565b5b6200025684828562000375565b509392505050565b600082601f83011262000276576200027562000475565b5b81516200028884826020860162000213565b91505092915050565b60008060408385031215620002ab57620002aa62000484565b5b600083015167ffffffffffffffff811115620002cc57620002cb6200047f565b5b620002da858286016200025e565b925050602083015167ffffffffffffffff811115620002fe57620002fd6200047f565b5b6200030c858286016200025e565b9150509250929050565b60006200032262000335565b9050620003308282620003e1565b919050565b6000604051905090565b600067ffffffffffffffff8211156200035d576200035c62000446565b5b620003688262000489565b9050602081019050919050565b60005b838110156200039557808201518184015260208101905062000378565b83811115620003a5576000848401525b50505050565b60006002820490506001821680620003c457607f821691505b60208210811415620003db57620003da62000417565b5b50919050565b620003ec8262000489565b810181811067ffffffffffffffff821117156200040e576200040d62000446565b5b80604052505050565b7f4e487b7100000000000000000000000000000000000000000000000000000000600052602260045260246000fd5b7f4e487b7100000000000000000000000000000000000000000000000000000000600052604160045260246000fd5b600080fd5b600080fd5b600080fd5b600080fd5b6000601f19601f8301169050919050565b612fd880620004aa6000396000f3fe608060405234801561001057600080fd5b506004361061010b5760003560e01c8063715018a6116100a2578063a22cb46511610071578063a22cb465146102b8578063b88d4fde146102d4578063c87b56dd146102f0578063e985e9c514610320578063f2fde38b146103505761010b565b8063715018a6146102425780637c3a58011461024c5780638da5cb5b1461027c57806395d89b411461029a5761010b565b806323b872dd116100de57806323b872dd146101aa57806342842e0e146101c65780636352211e146101e257806370a08231146102125761010b565b806301ffc9a71461011057806306fdde0314610140578063081812fc1461015e578063095ea7b31461018e575b600080fd5b61012a60048036038101906101259190611f0f565b61036c565b6040516101379190612390565b60405180910390f35b61014861044e565b60405161015591906123ab565b60405180910390f35b61017860048036038101906101739190611f69565b6104e0565b6040516101859190612300565b60405180910390f35b6101a860048036038101906101a39190611ecf565b610565565b005b6101c460048036038101906101bf9190611d5d565b61067d565b005b6101e060048036038101906101db9190611d5d565b6106dd565b005b6101fc60048036038101906101f79190611f69565b6106fd565b6040516102099190612300565b60405180910390f35b61022c60048036038101906102279190611cf0565b6107af565b604051610239919061260d565b60405180910390f35b61024a610867565b005b61026660048036038101906102619190611e73565b6108ef565b604051610273919061260d565b60405180910390f35b610284610960565b6040516102919190612300565b60405180910390f35b6102a261098a565b6040516102af91906123ab565b60405180910390f35b6102d260048036038101906102cd9190611e33565b610a1c565b005b6102ee60048036038101906102e99190611db0565b610b9d565b005b61030a60048036038101906103059190611f69565b610bff565b60405161031791906123ab565b60405180910390f35b61033a60048036038101906103359190611d1d565b610d51565b6040516103479190612390565b60405180910390f35b61036a60048036038101906103659190611cf0565b610de5565b005b60007f80ac58cd000000000000000000000000000000000000000000000000000000007bffffffffffffffffffffffffffffffffffffffffffffffffffffffff1916827bffffffffffffffffffffffffffffffffffffffffffffffffffffffff1916148061043757507f5b5e139f000000000000000000000000000000000000000000000000000000007bffffffffffffffffffffffffffffffffffffffffffffffffffffffff1916827bffffffffffffffffffffffffffffffffffffffffffffffffffffffff1916145b80610447575061044682610edd565b5b9050919050565b60606000805461045d90612863565b80601f016020809104026020016040519081016040528092919081815260200182805461048990612863565b80156104d65780601f106104ab576101008083540402835291602001916104d6565b820191906000526020600020905b8154815290600101906020018083116104b957829003601f168201915b5050505050905090565b60006104eb82610f47565b61052a576040517f08c379a00000000000000000000000000000000000000000000000000000000081526004016105219061254d565b60405180910390fd5b6004600083815260200190815260200160002060009054906101000a900473ffffffffffffffffffffffffffffffffffffffff169050919050565b6000610570826106fd565b90508073ffffffffffffffffffffffffffffffffffffffff168373ffffffffffffffffffffffffffffffffffffffff1614156105e1576040517f08c379a00000000000000000000000000000000000000000000000000000000081526004016105d8906125cd565b60405180910390fd5b8073ffffffffffffffffffffffffffffffffffffffff16610600610fb3565b73ffffffffffffffffffffffffffffffffffffffff16148061062f575061062e81610629610fb3565b610d51565b5b61066e576040517f08c379a00000000000000000000000000000000000000000000000000000000081526004016106659061248d565b60405180910390fd5b6106788383610fbb565b505050565b61068e610688610fb3565b82611074565b6106cd576040517f08c379a00000000000000000000000000000000000000000000000000000000081526004016106c4906125ed565b60405180910390fd5b6106d8838383611152565b505050565b6106f883838360405180602001604052806000815250610b9d565b505050565b6000806002600084815260200190815260200160002060009054906101000a900473ffffffffffffffffffffffffffffffffffffffff169050600073ffffffffffffffffffffffffffffffffffffffff168173ffffffffffffffffffffffffffffffffffffffff1614156107a6576040517f08c379a000000000000000000000000000000000000000000000000000000000815260040161079d906124cd565b60405180910390fd5b80915050919050565b60008073ffffffffffffffffffffffffffffffffffffffff168273ffffffffffffffffffffffffffffffffffffffff161415610820576040517f08c379a0000000000000000000000000000000000000000000000000000000008152600401610817906124ad565b60405180910390fd5b600360008373ffffffffffffffffffffffffffffffffffffffff1673ffffffffffffffffffffffffffffffffffffffff168152602001908152602001600020549050919050565b61086f610fb3565b73ffffffffffffffffffffffffffffffffffffffff1661088d610960565b73ffffffffffffffffffffffffffffffffffffffff16146108e3576040517f08c379a00000000000000000000000000000000000000000000000000000000081526004016108da9061256d565b60405180910390fd5b6108ed60006113ae565b565b60006108fb6008611474565b6000610907600861148a565b90506109138482611498565b61091d8184611666565b7fd055e65e60f4f152227c84f04fb4dba4466f6eea9384ccdaab2bed38b0ea279c338260405161094e929190612367565b60405180910390a18091505092915050565b6000600760009054906101000a900473ffffffffffffffffffffffffffffffffffffffff16905090565b60606001805461099990612863565b80601f01602080910402602001604051908101604052809291908181526020018280546109c590612863565b8015610a125780601f106109e757610100808354040283529160200191610a12565b820191906000526020600020905b8154815290600101906020018083116109f557829003601f168201915b5050505050905090565b610a24610fb3565b73ffffffffffffffffffffffffffffffffffffffff168273ffffffffffffffffffffffffffffffffffffffff161415610a92576040517f08c379a0000000000000000000000000000000000000000000000000000000008152600401610a899061244d565b60405180910390fd5b8060056000610a9f610fb3565b73ffffffffffffffffffffffffffffffffffffffff1673ffffffffffffffffffffffffffffffffffffffff16815260200190815260200160002060008473ffffffffffffffffffffffffffffffffffffffff1673ffffffffffffffffffffffffffffffffffffffff16815260200190815260200160002060006101000a81548160ff0219169083151502179055508173ffffffffffffffffffffffffffffffffffffffff16610b4c610fb3565b73ffffffffffffffffffffffffffffffffffffffff167f17307eab39ab6107e8899845ad3d59bd9653f200f220920489ca2b5937696c3183604051610b919190612390565b60405180910390a35050565b610bae610ba8610fb3565b83611074565b610bed576040517f08c379a0000000000000000000000000000000000000000000000000000000008152600401610be4906125ed565b60405180910390fd5b610bf9848484846116da565b50505050565b6060610c0a82610f47565b610c49576040517f08c379a0000000000000000000000000000000000000000000000000000000008152600401610c409061252d565b60405180910390fd5b6000600660008481526020019081526020016000208054610c6990612863565b80601f0160208091040260200160405190810160405280929190818152602001828054610c9590612863565b8015610ce25780601f10610cb757610100808354040283529160200191610ce2565b820191906000526020600020905b815481529060010190602001808311610cc557829003601f168201915b505050505090506000610cf3611736565b9050600081511415610d09578192505050610d4c565b600082511115610d3e578082604051602001610d269291906122dc565b60405160208183030381529060405292505050610d4c565b610d478461174d565b925050505b919050565b6000600560008473ffffffffffffffffffffffffffffffffffffffff1673ffffffffffffffffffffffffffffffffffffffff16815260200190815260200160002060008373ffffffffffffffffffffffffffffffffffffffff1673ffffffffffffffffffffffffffffffffffffffff16815260200190815260200160002060009054906101000a900460ff16905092915050565b610ded610fb3565b73ffffffffffffffffffffffffffffffffffffffff16610e0b610960565b73ffffffffffffffffffffffffffffffffffffffff1614610e61576040517f08c379a0000000000000000000000000000000000000000000000000000000008152600401610e589061256d565b60405180910390fd5b600073ffffffffffffffffffffffffffffffffffffffff168173ffffffffffffffffffffffffffffffffffffffff161415610ed1576040517f08c379a0000000000000000000000000000000000000000000000000000000008152600401610ec8906123ed565b60405180910390fd5b610eda816113ae565b50565b60007f01ffc9a7000000000000000000000000000000000000000000000000000000007bffffffffffffffffffffffffffffffffffffffffffffffffffffffff1916827bffffffffffffffffffffffffffffffffffffffffffffffffffffffff1916149050919050565b60008073ffffffffffffffffffffffffffffffffffffffff166002600084815260200190815260200160002060009054906101000a900473ffffffffffffffffffffffffffffffffffffffff1673ffffffffffffffffffffffffffffffffffffffff1614159050919050565b600033905090565b816004600083815260200190815260200160002060006101000a81548173ffffffffffffffffffffffffffffffffffffffff021916908373ffffffffffffffffffffffffffffffffffffffff160217905550808273ffffffffffffffffffffffffffffffffffffffff1661102e836106fd565b73ffffffffffffffffffffffffffffffffffffffff167f8c5be1e5ebec7d5bd14f71427d1e84f3dd0314c0f7b2291e5b200ac8c7c3b92560405160405180910390a45050565b600061107f82610f47565b6110be576040517f08c379a00000000000000000000000000000000000000000000000000000000081526004016110b59061246d565b60405180910390fd5b60006110c9836106fd565b90508073ffffffffffffffffffffffffffffffffffffffff168473ffffffffffffffffffffffffffffffffffffffff16148061113857508373ffffffffffffffffffffffffffffffffffffffff16611120846104e0565b73ffffffffffffffffffffffffffffffffffffffff16145b8061114957506111488185610d51565b5b91505092915050565b8273ffffffffffffffffffffffffffffffffffffffff16611172826106fd565b73ffffffffffffffffffffffffffffffffffffffff16146111c8576040517f08c379a00000000000000000000000000000000000000000000000000000000081526004016111bf9061258d565b60405180910390fd5b600073ffffffffffffffffffffffffffffffffffffffff168273ffffffffffffffffffffffffffffffffffffffff161415611238576040517f08c379a000000000000000000000000000000000000000000000000000000000815260040161122f9061242d565b60405180910390fd5b6112438383836117f4565b61124e600082610fbb565b6001600360008573ffffffffffffffffffffffffffffffffffffffff1673ffffffffffffffffffffffffffffffffffffffff168152602001908152602001600020600082825461129e9190612779565b925050819055506001600360008473ffffffffffffffffffffffffffffffffffffffff1673ffffffffffffffffffffffffffffffffffffffff16815260200190815260200160002060008282546112f591906126f2565b92505081905550816002600083815260200190815260200160002060006101000a81548173ffffffffffffffffffffffffffffffffffffffff021916908373ffffffffffffffffffffffffffffffffffffffff160217905550808273ffffffffffffffffffffffffffffffffffffffff168473ffffffffffffffffffffffffffffffffffffffff167fddf252ad1be2c89b69c2b068fc378daa952ba7f163c4a11628f55a4df523b3ef60405160405180910390a4505050565b6000600760009054906101000a900473ffffffffffffffffffffffffffffffffffffffff16905081600760006101000a81548173ffffffffffffffffffffffffffffffffffffffff021916908373ffffffffffffffffffffffffffffffffffffffff1602179055508173ffffffffffffffffffffffffffffffffffffffff168173ffffffffffffffffffffffffffffffffffffffff167f8be0079c531659141344cd1fd0a4f28419497f9722a3daafe3b4186f6b6457e060405160405180910390a35050565b6001816000016000828254019250508190555050565b600081600001549050919050565b600073ffffffffffffffffffffffffffffffffffffffff168273ffffffffffffffffffffffffffffffffffffffff161415611508576040517f08c379a00000000000000000000000000000000000000000000000000000000081526004016114ff9061250d565b60405180910390fd5b61151181610f47565b15611551576040517f08c379a00000000000000000000000000000000000000000000000000000000081526004016115489061240d565b60405180910390fd5b61155d600083836117f4565b6001600360008473ffffffffffffffffffffffffffffffffffffffff1673ffffffffffffffffffffffffffffffffffffffff16815260200190815260200160002060008282546115ad91906126f2565b92505081905550816002600083815260200190815260200160002060006101000a81548173ffffffffffffffffffffffffffffffffffffffff021916908373ffffffffffffffffffffffffffffffffffffffff160217905550808273ffffffffffffffffffffffffffffffffffffffff16600073ffffffffffffffffffffffffffffffffffffffff167fddf252ad1be2c89b69c2b068fc378daa952ba7f163c4a11628f55a4df523b3ef60405160405180910390a45050565b61166f82610f47565b6116ae576040517f08c379a00000000000000000000000000000000000000000000000000000000081526004016116a5906124ed565b60405180910390fd5b806006600084815260200190815260200160002090805190602001906116d5929190611b04565b505050565b6116e5848484611152565b6116f1848484846117f9565b611730576040517f08c379a0000000000000000000000000000000000000000000000000000000008152600401611727906123cd565b60405180910390fd5b50505050565b606060405180602001604052806000815250905090565b606061175882610f47565b611797576040517f08c379a000000000000000000000000000000000000000000000000000000000815260040161178e906125ad565b60405180910390fd5b60006117a1611736565b905060008151116117c157604051806020016040528060008152506117ec565b806117cb84611990565b6040516020016117dc9291906122dc565b6040516020818303038152906040525b915050919050565b505050565b600061181a8473ffffffffffffffffffffffffffffffffffffffff16611af1565b15611983578373ffffffffffffffffffffffffffffffffffffffff1663150b7a02611843610fb3565b8786866040518563ffffffff1660e01b8152600401611865949392919061231b565b602060405180830381600087803b15801561187f57600080fd5b505af19250505080156118b057506040513d601f19601f820116820180604052508101906118ad9190611f3c565b60015b611933573d80600081146118e0576040519150601f19603f3d011682016040523d82523d6000602084013e6118e5565b606091505b5060008151141561192b576040517f08c379a0000000000000000000000000000000000000000000000000000000008152600401611922906123cd565b60405180910390fd5b805181602001fd5b63150b7a0260e01b7bffffffffffffffffffffffffffffffffffffffffffffffffffffffff1916817bffffffffffffffffffffffffffffffffffffffffffffffffffffffff191614915050611988565b600190505b949350505050565b606060008214156119d8576040518060400160405280600181526020017f30000000000000000000000000000000000000000000000000000000000000008152509050611aec565b600082905060005b60008214611a0a5780806119f3906128c6565b915050600a82611a039190612748565b91506119e0565b60008167ffffffffffffffff811115611a2657611a256129fc565b5b6040519080825280601f01601f191660200182016040528015611a585781602001600182028036833780820191505090505b5090505b60008514611ae557600182611a719190612779565b9150600a85611a80919061290f565b6030611a8c91906126f2565b60f81b818381518110611aa257611aa16129cd565b5b60200101907effffffffffffffffffffffffffffffffffffffffffffffffffffffffffffff1916908160001a905350600a85611ade9190612748565b9450611a5c565b8093505050505b919050565b600080823b905060008111915050919050565b828054611b1090612863565b90600052602060002090601f016020900481019282611b325760008555611b79565b82601f10611b4b57805160ff1916838001178555611b79565b82800160010185558215611b79579182015b82811115611b78578251825591602001919060010190611b5d565b5b509050611b869190611b8a565b5090565b5b80821115611ba3576000816000905550600101611b8b565b5090565b6000611bba611bb58461264d565b612628565b905082815260208101848484011115611bd657611bd5612a30565b5b611be1848285612821565b509392505050565b6000611bfc611bf78461267e565b612628565b905082815260208101848484011115611c1857611c17612a30565b5b611c23848285612821565b509392505050565b600081359050611c3a81612f46565b92915050565b600081359050611c4f81612f5d565b92915050565b600081359050611c6481612f74565b92915050565b600081519050611c7981612f74565b92915050565b600082601f830112611c9457611c93612a2b565b5b8135611ca4848260208601611ba7565b91505092915050565b600082601f830112611cc257611cc1612a2b565b5b8135611cd2848260208601611be9565b91505092915050565b600081359050611cea81612f8b565b92915050565b600060208284031215611d0657611d05612a3a565b5b6000611d1484828501611c2b565b91505092915050565b60008060408385031215611d3457611d33612a3a565b5b6000611d4285828601611c2b565b9250506020611d5385828601611c2b565b9150509250929050565b600080600060608486031215611d7657611d75612a3a565b5b6000611d8486828701611c2b565b9350506020611d9586828701611c2b565b9250506040611da686828701611cdb565b9150509250925092565b60008060008060808587031215611dca57611dc9612a3a565b5b6000611dd887828801611c2b565b9450506020611de987828801611c2b565b9350506040611dfa87828801611cdb565b925050606085013567ffffffffffffffff811115611e1b57611e1a612a35565b5b611e2787828801611c7f565b91505092959194509250565b60008060408385031215611e4a57611e49612a3a565b5b6000611e5885828601611c2b565b9250506020611e6985828601611c40565b9150509250929050565b60008060408385031215611e8a57611e89612a3a565b5b6000611e9885828601611c2b565b925050602083013567ffffffffffffffff811115611eb957611eb8612a35565b5b611ec585828601611cad565b9150509250929050565b60008060408385031215611ee657611ee5612a3a565b5b6000611ef485828601611c2b565b9250506020611f0585828601611cdb565b9150509250929050565b600060208284031215611f2557611f24612a3a565b5b6000611f3384828501611c55565b91505092915050565b600060208284031215611f5257611f51612a3a565b5b6000611f6084828501611c6a565b91505092915050565b600060208284031215611f7f57611f7e612a3a565b5b6000611f8d84828501611cdb565b91505092915050565b611f9f816127ad565b82525050565b611fae816127bf565b82525050565b6000611fbf826126af565b611fc981856126c5565b9350611fd9818560208601612830565b611fe281612a3f565b840191505092915050565b6000611ff8826126ba565b61200281856126d6565b9350612012818560208601612830565b61201b81612a3f565b840191505092915050565b6000612031826126ba565b61203b81856126e7565b935061204b818560208601612830565b80840191505092915050565b60006120646032836126d6565b915061206f82612a50565b604082019050919050565b60006120876026836126d6565b915061209282612a9f565b604082019050919050565b60006120aa601c836126d6565b91506120b582612aee565b602082019050919050565b60006120cd6024836126d6565b91506120d882612b17565b604082019050919050565b60006120f06019836126d6565b91506120fb82612b66565b602082019050919050565b6000612113602c836126d6565b915061211e82612b8f565b604082019050919050565b60006121366038836126d6565b915061214182612bde565b604082019050919050565b6000612159602a836126d6565b915061216482612c2d565b604082019050919050565b600061217c6029836126d6565b915061218782612c7c565b604082019050919050565b600061219f602e836126d6565b91506121aa82612ccb565b604082019050919050565b60006121c26020836126d6565b91506121cd82612d1a565b602082019050919050565b60006121e56031836126d6565b91506121f082612d43565b604082019050919050565b6000612208602c836126d6565b915061221382612d92565b604082019050919050565b600061222b6020836126d6565b915061223682612de1565b602082019050919050565b600061224e6029836126d6565b915061225982612e0a565b604082019050919050565b6000612271602f836126d6565b915061227c82612e59565b604082019050919050565b60006122946021836126d6565b915061229f82612ea8565b604082019050919050565b60006122b76031836126d6565b91506122c282612ef7565b604082019050919050565b6122d681612817565b82525050565b60006122e88285612026565b91506122f48284612026565b91508190509392505050565b60006020820190506123156000830184611f96565b92915050565b60006080820190506123306000830187611f96565b61233d6020830186611f96565b61234a60408301856122cd565b818103606083015261235c8184611fb4565b905095945050505050565b600060408201905061237c6000830185611f96565b61238960208301846122cd565b9392505050565b60006020820190506123a56000830184611fa5565b92915050565b600060208201905081810360008301526123c58184611fed565b905092915050565b600060208201905081810360008301526123e681612057565b9050919050565b600060208201905081810360008301526124068161207a565b9050919050565b600060208201905081810360008301526124268161209d565b9050919050565b60006020820190508181036000830152612446816120c0565b9050919050565b60006020820190508181036000830152612466816120e3565b9050919050565b6000602082019050818103600083015261248681612106565b9050919050565b600060208201905081810360008301526124a681612129565b9050919050565b600060208201905081810360008301526124c68161214c565b9050919050565b600060208201905081810360008301526124e68161216f565b9050919050565b6000602082019050818103600083015261250681612192565b9050919050565b60006020820190508181036000830152612526816121b5565b9050919050565b60006020820190508181036000830152612546816121d8565b9050919050565b60006020820190508181036000830152612566816121fb565b9050919050565b600060208201905081810360008301526125868161221e565b9050919050565b600060208201905081810360008301526125a681612241565b9050919050565b600060208201905081810360008301526125c681612264565b9050919050565b600060208201905081810360008301526125e681612287565b9050919050565b60006020820190508181036000830152612606816122aa565b9050919050565b600060208201905061262260008301846122cd565b92915050565b6000612632612643565b905061263e8282612895565b919050565b6000604051905090565b600067ffffffffffffffff821115612668576126676129fc565b5b61267182612a3f565b9050602081019050919050565b600067ffffffffffffffff821115612699576126986129fc565b5b6126a282612a3f565b9050602081019050919050565b600081519050919050565b600081519050919050565b600082825260208201905092915050565b600082825260208201905092915050565b600081905092915050565b60006126fd82612817565b915061270883612817565b9250827fffffffffffffffffffffffffffffffffffffffffffffffffffffffffffffffff0382111561273d5761273c612940565b5b828201905092915050565b600061275382612817565b915061275e83612817565b92508261276e5761276d61296f565b5b828204905092915050565b600061278482612817565b915061278f83612817565b9250828210156127a2576127a1612940565b5b828203905092915050565b60006127b8826127f7565b9050919050565b60008115159050919050565b60007fffffffff0000000000000000000000000000000000000000000000000000000082169050919050565b600073ffffffffffffffffffffffffffffffffffffffff82169050919050565b6000819050919050565b82818337600083830152505050565b60005b8381101561284e578082015181840152602081019050612833565b8381111561285d576000848401525b50505050565b6000600282049050600182168061287b57607f821691505b6020821081141561288f5761288e61299e565b5b50919050565b61289e82612a3f565b810181811067ffffffffffffffff821117156128bd576128bc6129fc565b5b80604052505050565b60006128d182612817565b91507fffffffffffffffffffffffffffffffffffffffffffffffffffffffffffffffff82141561290457612903612940565b5b600182019050919050565b600061291a82612817565b915061292583612817565b9250826129355761293461296f565b5b828206905092915050565b7f4e487b7100000000000000000000000000000000000000000000000000000000600052601160045260246000fd5b7f4e487b7100000000000000000000000000000000000000000000000000000000600052601260045260246000fd5b7f4e487b7100000000000000000000000000000000000000000000000000000000600052602260045260246000fd5b7f4e487b7100000000000000000000000000000000000000000000000000000000600052603260045260246000fd5b7f4e487b7100000000000000000000000000000000000000000000000000000000600052604160045260246000fd5b600080fd5b600080fd5b600080fd5b600080fd5b6000601f19601f8301169050919050565b7f4552433732313a207472616e7366657220746f206e6f6e20455243373231526560008201527f63656976657220696d706c656d656e7465720000000000000000000000000000602082015250565b7f4f776e61626c653a206e6577206f776e657220697320746865207a65726f206160008201527f6464726573730000000000000000000000000000000000000000000000000000602082015250565b7f4552433732313a20746f6b656e20616c7265616479206d696e74656400000000600082015250565b7f4552433732313a207472616e7366657220746f20746865207a65726f2061646460008201527f7265737300000000000000000000000000000000000000000000000000000000602082015250565b7f4552433732313a20617070726f766520746f2063616c6c657200000000000000600082015250565b7f4552433732313a206f70657261746f7220717565727920666f72206e6f6e657860008201527f697374656e7420746f6b656e0000000000000000000000000000000000000000602082015250565b7f4552433732313a20617070726f76652063616c6c6572206973206e6f74206f7760008201527f6e6572206e6f7220617070726f76656420666f7220616c6c0000000000000000602082015250565b7f4552433732313a2062616c616e636520717565727920666f7220746865207a6560008201527f726f206164647265737300000000000000000000000000000000000000000000602082015250565b7f4552433732313a206f776e657220717565727920666f72206e6f6e657869737460008201527f656e7420746f6b656e0000000000000000000000000000000000000000000000602082015250565b7f45524337323155524953746f726167653a2055524920736574206f66206e6f6e60008201527f6578697374656e7420746f6b656e000000000000000000000000000000000000602082015250565b7f4552433732313a206d696e7420746f20746865207a65726f2061646472657373600082015250565b7f45524337323155524953746f726167653a2055524920717565727920666f722060008201527f6e6f6e6578697374656e7420746f6b656e000000000000000000000000000000602082015250565b7f4552433732313a20617070726f76656420717565727920666f72206e6f6e657860008201527f697374656e7420746f6b656e0000000000000000000000000000000000000000602082015250565b7f4f776e61626c653a2063616c6c6572206973206e6f7420746865206f776e6572600082015250565b7f4552433732313a207472616e73666572206f6620746f6b656e2074686174206960008201527f73206e6f74206f776e0000000000000000000000000000000000000000000000602082015250565b7f4552433732314d657461646174613a2055524920717565727920666f72206e6f60008201527f6e6578697374656e7420746f6b656e0000000000000000000000000000000000602082015250565b7f4552433732313a20617070726f76616c20746f2063757272656e74206f776e6560008201527f7200000000000000000000000000000000000000000000000000000000000000602082015250565b7f4552433732313a207472616e736665722063616c6c6572206973206e6f74206f60008201527f776e6572206e6f7220617070726f766564000000000000000000000000000000602082015250565b612f4f816127ad565b8114612f5a57600080fd5b50565b612f66816127bf565b8114612f7157600080fd5b50565b612f7d816127cb565b8114612f8857600080fd5b50565b612f9481612817565b8114612f9f57600080fd5b5056fea2646970667358221220ad990ab1099322a4e241c4757e1728edb4bb122e66e555fb4f6e9beb3dc8ed8664736f6c63430008070033a2646970667358221220f4022aef37a3c6c6ff474c79a74d1e9e496d862bb137960ca0be3f4321edfba164736f6c6343000807003368747470733a2f2f373334302d3130322d3137362d39342d35312e6e67726f6b2e696f2f617069",
  "immutableReferences": {},
  "source": "// SPDX-License-Identifier: MIT\npragma solidity ^0.8.0;\n\nimport \"@chainlink/contracts/src/v0.8/ChainlinkClient.sol\";\nimport \"./impl/IDacredFactory.sol\";\nimport \"./impl/DacredFactory.sol\";\n\ncontract DacredRouter is ChainlinkClient {\n    using Chainlink for Chainlink.Request;\n   \n    /** data access obj for certificate contracts */\n    struct Daccred {\n        DacredFactory contractAddress;\n        address deployer;\n        string certificateId;\n        uint createdAt;\n    }\n   \n   /* contract variables */\n    bool public pass; \n    address private oracle;\n    bytes32 private jobId;\n    uint256 private fee;\n    mapping(address => Daccred) public credentials;\n    string public _uri_ = \"https://7340-102-176-94-51.ngrok.io/api\";\n\n    /* events */\n    event NewContractCreated(address contractAddress, uint createdAt);\n\n\n    function createContractForClient(string memory name, string memory certId ) public returns(address) {\n        address deployer = msg.sender;\n        uint timestamp = block.timestamp;\n\n        /* Generate new credential NFT contract */\n        DacredFactory newContract = new DacredFactory(name, certId);\n\n        /* persist to contract store */\n        credentials[address(newContract)] = Daccred(newContract, deployer, certId, timestamp);\n\n        emit NewContractCreated(address(newContract), timestamp);\n        return address(newContract);\n\n    }\n\n\n\n\n    function setRequestURI(string memory _requestURI) public {\n        _uri_ = _requestURI;\n    }\n\n    /**\n     * Network: Kovan\n     * Oracle: 0xc57B33452b4F7BB189bB5AfaE9cc4aBa1f7a4FD8 (Chainlink Devrel   \n     * Node)\n     * Job ID: bc746611ebee40a3989bbe49e12a02b9\n     * Fee: 0.1 LINK\n     */\n    constructor() {\n        setPublicChainlinkToken();\n        oracle = 0xc57B33452b4F7BB189bB5AfaE9cc4aBa1f7a4FD8;\n        jobId = \"bc746611ebee40a3989bbe49e12a02b9\";\n        fee = 0.1 * 10 ** 18; // (Varies by network and job)\n        \n    }\n    \n    function validateRecipient(\n        // uint _certId,\n        string memory _claimContractAddress\n        ) public returns (bytes32 requestId) {\n\n        Chainlink.Request memory request = buildChainlinkRequest(jobId, address(this), this.fulfill.selector);\n        \n        // Set the URL to perform the GET request on\n        request.add(\"post\", _uri_);\n        request.add(\"e\", _claimContractAddress);\n        request.add(\"path\", \"pass\");\n        request.add(\"path\", \"contractAddress\");\n        request.add(\"path\", \"id\");\n\n        \n\n\n\n        \n        // Sends the request\n        return sendChainlinkRequestTo(oracle, request, fee);\n    }\n    \n    /**\n     * Receive the response in the form of bool\n     */ \n    function fulfill(bytes32 _requestId, bool _pass, address contractAddress, string memory id ) public recordChainlinkFulfillment(_requestId) {\n        pass = _pass;\n        if(_pass) {\n            DacredFactory(contractAddress).awardCredential(msg.sender, id);\n        }\n\n        // Mint Credential for recipient\n        // DacredFactory()\n    }\n}\n\n",
  "sourcePath": "/Users/apple/srv/koolamusic/daccred.io/contracts/src/contracts/DacredRouter.sol",
  "compiler": {
    "name": "solc",
    "version": "0.8.7+commit.e28d00a7.Emscripten.clang"
  },
  "schemaVersion": "3.4.3",
  "updatedAt": "2021-12-01T12:34:18.049Z",
  "devdoc": {
    "kind": "dev",
    "methods": {},
    "version": 1
  },
  "userdoc": {
    "kind": "user",
    "methods": {
      "constructor": {
        "notice": "Network: Kovan Oracle: 0xc57B33452b4F7BB189bB5AfaE9cc4aBa1f7a4FD8 (Chainlink Devrel    Node) Job ID: bc746611ebee40a3989bbe49e12a02b9 Fee: 0.1 LINK"
      },
      "fulfill(bytes32,bool,address,string)": {
        "notice": "Receive the response in the form of bool"
      }
    },
    "version": 1
  }
}